:020000040000FA
:0600000002010F0220B115
:03001B00021D556E
:03002B00021D8132
:0300530002212463
:03006B00021CD4A0
:03007300021D74F7
:03007B00021CE381
:10008300021FE7E5C754F84401F5C77901220000D0
:100093000080FB120086B900030200F9E4791278AC
:1000A30008B800028004F709D8FCE490020178FB49
:1000B30079088002F0A3D8FCD9FA781A90013F7A24
:1000C30001BA00028007E493A3F608DAF99009FB6A
:1000D300AA82AB83900140786879048015E493A3E6
:1000E300AC82AD838A828B83F0A3AA82AB838C829A
:1000F3008D83D8E9D9E775829F75837C74001201DB
:1001030021758291758300740012012175D00075E9
:10011300817F751001751102759F00020096C09FC3
:10012300F59FE473D09F22D083D082C09FE493C015
:10013300E0740193C0E0740293F59F22010F0A0A51
:100143000A050A140AD80B007F05000002550500B2
:1001530000056105000004000000000000490501DE
:1001630001D80B3B08230A230A02010A0000970562
:10017300010201060302A0FF0D09000000000000B8
:100183000000000000000916A0FF01000F0F0F0F71
:100193000000CB04F10500000A1202B9900100002F
:1001A300A29002B190010000570A02F190010000F1
:1001B300000002B590030000800202B1900100002C
:1001C300560A02EF90030000000002B19001000004
:1001D300560A02ED90030000000002B190010000F6
:1001E300560A02EB90030000000002B190010000E8
:1001F300560A02E990030000000002B190010000DA
:10020300560A02E790030000000002B190010000CB
:10021300560A02E590030000000002B190010000BD
:10022300560A02E390030000000002B190010000AF
:10023300560A02E190030000000002B190010000A1
:10024300560A02DF90030000000002B19001000093
:10025300560A02DD90030000000002B19001000085
:10026300560A02DB90030000000002B19001000077
:10027300560A02D990030000000002B19001000069
:10028300560A02D790030000000002B1900100005B
:10029300560A02D590030000000002B1900100004D
:1002A300560A02D390030000000002B1900100003F
:1002B300560A02D190030000000002B19001000031
:1002C300560A02CF90030000000002B19001000023
:1002D300560A02CD90030000000002B19001000015
:1002E300560A02CB90030000000002B19001000007
:1002F300560A02C990030000000002B190010000F9
:10030300560A02C790030000000002B190010000EA
:10031300560A02C590030000000002B190010000DC
:10032300560A02C390030000000002B190010000CE
:10033300560A02C190030000000002B190010000C0
:10034300560A02BF900300000000000045060000AB
:100353004B06000051060000570600005D06000032
:1003630063060000690600006F06000075060000C2
:100373007B060000810601FFFF00013075030201C7
:100383000600000000000000000000000000000064
:1003930000000000000000000000000000FFFF0656
:1003A30000800CE80301E803053F10FF000000781C
:1003B3000028002800283075A000A000A000A0009D
:1003C30000080008E001F000100010001000100009
:1003D3001000100050005000500010001000D00713
:1003E3000000000000000F0030750700100001003E
:1003F3000000FF490B670B4F0BFF02020A0A025072
:1004030000A0000000E80302B990010000A59002DB
:10041300B190010000B80C02AB900100006305022B
:10042300B190010000B90C02B790010000780502F9
:10043300B190010000BA0C02AD900300007A0502EE
:10044300B190010000BB0C02F7900300007B050292
:10045300B190010000BC0C02AF90010000BD0CFF85
:100463000100FF2002B990010000A89002B19001A1
:100473000000210D02F390000000000002B590037C
:100483000000C805631263126312631263126312DE
:1004930063126312631263126312631263122715EA
:1004A3003F15211512012AE8600012012A4161005B
:1004B30012012A88610012012A99610012012ACED1
:1004C300610012012A1B640012012A9F64001201B9
:1004D3002ABE640012012AC5670012012ADF6700E1
:1004E30012012A53680012012ADD680012012A0151
:1004F300690012012A56690012012A626900120179
:100503002A79690012012A7E690012012A80690092
:1005130012012AEF690012012A326A0012012A40ED
:100523006A0012012A486A0012012A516A00120164
:100533002A8B6A0012012AAC6A0012012A2B6B0073
:1005430012012A366B0012012A4D6B0012012A8513
:100553006B0012012A9F6B0012012ABD6B0012016E
:100563002A1B6C0012012A386C0012012AAC6C00A1
:1005730012012A3A6D0012012A706D0012012AA499
:100583006D0012012AC66D0012012A706E0012015D
:100593002A946E0012012AEF6E0012012A0C6F00DA
:1005A30012012A176F0012012A456F0012012A7ADD
:1005B3006F0012012A856F0012012A0471001201D3
:1005C3002A84710012012A0C720012012A26720079
:1005D30012012A34720012012A42720012012A6F98
:1005E300720012012AE7720012012AC77500120174
:1005F3002ADF750012012A1A760012012A2C7600CE
:1006030012012ACB760012012AE4760012012A0A8B
:10061300770012012A2A770012012A5D770012015E
:100623002A89770012012AB6770012012ACD7700B2
:1006330012012AE2770012012AF2770012012A122C
:10064300780012012A1E780012012A45780012014F
:100653002A64780012012A86780012012A90780011
:1006630012012AD3780012012A0C790012012A38C8
:10067300790012012A60790012012AF77900120128
:100683002A187A0012012AA27A0012012ACB7A00D0
:1006930012012AD77A0012012AA47C0012012A052A
:1006A300280012012A11280012012A212800120110
:1006B3002A69280012012AEC290012012AF32900D1
:1006C30012012A452A0012012A832A0012012A88CC
:1006D3002A0012012A8F2A0012012A912A001201EC
:1006E3002A932A0012012AA32A0012012AC82A00E7
:1006F30012012AD22A0012012A062B0012012A4DC6
:100703002B0012012A782B0012012AD42B0012018C
:100713002AFE2B0012012A082C0012012A4D2C005C
:1007230012012A722C0012012A7C2C0012012A8643
:100733002C0012012AF32C0012012A792D00120138
:100743002AC92D0012012AEC2D0012012A6A2E005B
:1007530012012AA82E0012012AE42E0012012AF601
:100763002E0012012A1E2F0012012A272F00120128
:100773002AD72F0012012A03300012012A5A30000F
:1007830012012AAB300012012A1B310012012A6C1C
:10079300310012012A94310012012A73320012012E
:1007A3002A58330012012ADA330012012AE83400EE
:1007B30012012A1A350012012A4E350012012A8E1F
:1007C300360012012AC6360012012AD83600120159
:1007D3002AE4360012012A2C370012012A5237006C
:1007E30012012A23380012012A62380012012ABD9D
:1007F300380012012A07390012012A6E390012014A
:100803002AFE390012012AF53A0012012AB23C00ED
:1008130012012A383D0012012AA13D0012012AAB20
:100823003D0012012AC83E0012012A0B3F001201AB
:100833002AE13F0012012A23400012012A3C400012
:1008430012012A73400012012AC3400012012AF543
:10085300400012012A2C410012012A164300120102
:100863002A85430012012AB3460012012AFF4600DB
:1008730012012A15470012012A93470012012A6C1C
:10088300490012012ADE4C0012012AB74D00120161
:100893002A7F4F0012012A1B510012012ABB51006B
:1008A30012012A36520012012ABB520012012ADE1B
:1008B300520012012A72560012012AF35600120145
:1008C3002A0D580012012A47580012012A7A5800AB
:1008D30012012AB0590012012AF8590012012A41C3
:1008E3005A0012012A995A0012012AE05A001201F1
:1008F3002A145B0012012A2D5B0012012A165C00E8
:1009030012012A505C0012012AF35C0012012A072B
:100913005D0012012A365D0012012AE25E00120117
:100923002A5B5F0012012A995F0012012A9A600074
:1009330012012AF87F0012012A60FE0212012A71B5
:10094300FE0212012AF6FE0212012A5AFF021201C6
:100953002AADFC0212012AC4FC0212012AF3FC0292
:1009630012012A2CFD0212012A54FD0212012A82CD
:10097300FD0212012A99FD0212012AB0FD021201A1
:100983002AC6FD0212012AEDFD0212012A00FE020F
:1009930012012A16FE0212012A29FE0212012A4E10
:1009A300FE0212012A7CF20212012A7DF3021201D5
:1009B3002AB2F30212012AD3F30212012AE3F30249
:1009C30012012A04F40212012A0CF50212012AD29E
:1009D300F50212012A86F60212012A08F702120111
:1009E3002A0BF70212012A42F70212012A6AF702BE
:1009F30012012A4AF80212012AABF80212012A183C
:100A0300F90212012A92F90212012A95F90212013E
:100A13002A98F90212012A42FA0212012A5AFA0208
:100A230012012A84FA0212012AADFA0212012A855E
:100A3300FB0212012A42FC0212012A5BAC031201DF
:100A43002A83AC0312012AB1AC0312012AE8AC03D6
:100A530012012A50AD0312012A99AD0312012AE9AA
:100A6300AD0312012A27AE0312012A64AE03120159
:100A73002A92AE0312012A21AF0312012A2BAF03DC
:100A830012012A38AF0312012A6BAF0312012A376E
:100A9300B00312012A43B00312012A5BB00312010F
:100AA3002A65B00312012AFEC60312012A0CC703EA
:100AB30012012A24C70312012A3CC70312012A3A4E
:100AC300940212012ADC940212012A5495021201A3
:100AD3002A72960212012A95960212012A3497026B
:100AE30012012A0B980212012A44990212012AE8E0
:100AF300990212012A5A9A0212012A5D9B021201DB
:100B03002AAC9B0212012AD09B0212012AF79D02F2
:100B130012012A3B9E0212012A5D9E0212012AAB98
:100B23009E0212012AAD9F0212012A9AA00212010B
:100B33002A64A00312012A36A10312012AFFA1038A
:100B430012012A3CA20312012AC9A20312012A5547
:100B5300A30312012A2CA40312012A5BA40312018A
:100B63002A1CA50312012A5BA50312012AE7A50388
:100B730012012A2BA60312012A51A60312012A737A
:100B8300FF0212012A99C10312012AAFC103120104
:100B93002AD5C10312012AF0C20312012AFAC203A1
:100BA30012012A45C40312012A45C50312012A274B
:100BB300B10312012A1FB20312012A4BB20312011D
:100BC3002AFDB30312012AE6EC0112012A49ED01C1
:100BD30012012A89EE0112012A99EE0112012ABC9F
:100BE300EE0112012A07EF0112012AAEEF011201F1
:100BF3002AC2F00112012A96F10112012A0AF30115
:100C030012012A43F30112012AE4F30112012A31EA
:100C1300F40112012A57F40112012A2AF6011201E2
:100C23002A2FF60112012A16F80112012A5DF80192
:100C330012012ACCF80112012AF4F80112012A93B5
:100C4300F90112012A55FA0112012A86FA01120149
:100C53002A89FA0112012AD1FA0112012A13FB018E
:100C630012012A80FB0112012A55FC0112012A6894
:100C7300FC0112012A81FC0112012AC6FC011201A6
:100C83002A9FFD0112012A44FE0112012A91FE014D
:100C930012012AFA900112012A06910112012A3F38
:100CA300910112012A81910112012A389201120144
:100CB3002ABA920112012AE4920112012A1D930118
:100CC30012012A55950112012A3C970112012A0F9C
:100CD300990112012A439A0112012A9A9C011201D5
:100CE3002AA89D0112012AF39E0112012A18A001CC
:100CF30012012A35A00112012A6DA00112012A87CF
:100D0300A00112012AFDA00112012A02A60112016B
:100D13002AA5A60112012A02A70112012A29A70165
:100D230012012A7AA70112012A98A70112012AF6B1
:100D3300A70112012A0CA90112012A8EA90112018D
:100D43002A00800312012A0A800312012AC48003A5
:100D530012012AFC800312012A29810312012A8D20
:100D6300810312012AB3810312012A0682031201AD
:100D73002A42820312012A6A820312012A9C8303F4
:100D830012012AC7830312012A01840312012A4193
:100D9300840312012A65840312012AAF840312011A
:100DA3002AE9840312012A2B850312012A5E850393
:100DB30012012A89850312012AE4850312012A1DDF
:100DC300860312012A96860312012AD5860312018D
:100DD3002A1C870312012A46870312012A838703E9
:100DE30012012AAD870312012ADE870312012AF1B9
:100DF300870312012A30880312012A638803120130
:100E03002AAC880312012A01890312012A4A8903A1
:100E130012012A74890312012AC0BD0312012AFE9A
:100E2300BD0312012A61BE0312012A1DBF03120171
:100E33002AFEBF0312012A2CC00312012A19C1037F
:100E430012012A17CE0212012A30CE0212012A6899
:100E5300CF0212012A51D00212012A70D0021201CC
:100E63002A31D10212012A77D20212012A55D30262
:100E730012012ACFD60212012A5CD70212012A20BC
:100E8300D80212012A10D90212012A7CDA021201B5
:100E93002A12DB0212012A8DDB0212012A7D990339
:100EA30012012AAA990312012A0E9A0312012A197E
:100EB3009A0312012A249A0312012A2F9A03120178
:100EC3002A539A0312012AC79A0312012A959D03F2
:100ED30012012A679E0312012AE79E0312012A7751
:100EE3009F0312012A809F0312012AA09F0312016C
:100EF3002AAF9F0312012AC79F0312012AD09F031F
:100F030012012AE79F0312012A08A00312012A11E2
:100F1300A00312012A1DA00312012A26A003120115
:100F23002A36A00312012A40A00312012A4AA00371
:100F330012012A5AA00312012ABBFE0112012A241C
:100F4300FF0112012A78FF0112012A9FFF011201FA
:100F53002A88B50312012AF5B50312012A37B6030D
:100F630012012A2CB70312012A2FB80312012A19DE
:100F7300B90312012A99890312012ADB8903120199
:100F83002AC48A0312012AA48B0312012A9F8C0309
:100F930012012A7F8D0312012AEB8D0312012AA964
:100FA3008E0312012A198F0312012A808F03120163
:100FB3002AAB8F0312012A11900312012AB990035D
:100FC30012012A2A910312012A43910312012A874B
:100FD300910312012AA0910312012AFF9103120126
:100FE3002A02920312012A007D0012012A287D00A1
:100FF30012012A667D0012012A137E0012012A873C
:101003007E0012012AA37E0012012ACB7E00120168
:101013002AFB7E0012012A0A7F0012012A7E7F002A
:1010230012012AA47F0012012A3EC20112012A885A
:10103300C30112012A02C50112012ACAC501120104
:101043002A15C60112012A60C60112012A7EC601B1
:1010530012012AC0C60112012ADCC60112012A2A82
:10106300C70112012A59C70112012A8DC7011201B2
:101073002ADAC70112012A4DC80112012A14CC0130
:1010830012012A72CD0112012ADECD0112012A5862
:10109300CE0112012A02D00112012A5BD0011201F2
:1010A3002A9ED10112012AF9D10112012A6CD2011F
:1010B30012012AB8D20112012ADED20112012AA793
:1010C300D30112012AD2D30112012A48D4011201F9
:1010D3002ABED40112012A06D50112012A28D501FC
:1010E30012012A22D60112012A4FD60112012AAD7A
:1010F300D60112012AD2D60112012ACADB02120139
:101103002AF5DB0212012AB1E20212012A4BE402A0
:1011130012012AE7E50212012A2AE70212012AF73D
:10112300A90112012A76AA0112012AA3AA01120116
:101133002AE9AA0112012AF6AA0112012AFFAB0128
:1011430012012A2BAC0112012A62AC0112012A31CD
:10115300AE0112012AEFAE0112012A64AF0112019E
:101163002A93B00112012AEEB10112012AF0B20151
:1011730012012A4DB40112012A66B40112012AC0D8
:10118300B40112012AA7B50112012ADAB50112012D
:101193002A4AB60112012ACDB60112012A17B70154
:1011A30012012AE1B70112012AE4B80112012AC38C
:1011B300B90112012A4EBA0112012AB3BA0112016E
:1011C3002A22BB0112012A4BBB0112012A0BBC01CB
:1011D30012012A7FBD0112012A9CBD0112012ABB03
:1011E300BD0112012A61BE0112012A89BE01120149
:1011F3002A04BF0112012A5EBF0112012AB0C001F5
:1012030012012A44C10112012A10C20112012A4605
:10121300C00212012A96C00212012AA2C0021201C0
:101223002A81C10212012AB1C10212012AE9C102B3
:1012330012012A64C20212012A9CC20212012AF07C
:10124300C20212012A2DC30212012A4FC502120142
:101253002A81C70212012A76C90212012A51CB023E
:1012630012012AEC7F0012012A00800212012A4A8D
:10127300800212012ADE860212012A40880212012C
:101283002A948E0212012A8F8F0212012ACC8F0216
:1012930012012AEF8F0212012A31900212012A3A17
:1012A300900212012A44900212012A309102120183
:1012B3002A24920212012ADCD70112012A4AE101EF
:1012C30012012A50E10112012A2BE80112012AD648
:1012D300B90312012A6CBA0312012A82BA0312015A
:1012E3002AF1BA0312012A3CBB0312012A7ABB0377
:1012F30012012AC6BB0312012A43BC0312012A8727
:10130300BC0312012A90BC0312012A9CBC031201E4
:101313002AB6BC0312012AF2BC0312012A08BD0338
:1013230012012A31BD0312012A90BD0312012AC6FC
:10133300A60312012AD9A60312012AF3A603120156
:101343002A1CA70312012A5FA70312012A9EA703DF
:1013530012012ADCA70312012A41A80312012A560B
:10136300A80312012A61A80312012A6EA80312011D
:101373002A85A80312012A93A80312012A9EA8030F
:1013830012012AAAA80312012ABDA80312012AC81E
:10139300A80312012AEBA80312012A97A903120139
:1013A3002AA7A90312012AC6A90312012AE3A90342
:1013B30012012AF4A90312012A10AA0312012A1EF8
:1013C300AA0312012A28AA0312012A3CAA03120122
:1013D3002A5DAA0312012ABEAA0312012AC4AA0380
:1013E30012012ACAAA0312012AD0AA0312012AD679
:1013F300AA0312012AFDAA0312012A38AB03120120
:101403002A52AB0312012A9DAB0312012AD0AB036C
:1014130012012AD6B10212012A58B20212012A1469
:10142300B30212012AA6B40212012AFCB602120167
:101433002ACFB70212012A04B80212012A42B802C3
:1014430012012AB2B80212012A6FBA0212012A98B3
:10145300BA0212012A24BB0212012A56BB0212014C
:101463002A63BB0212012AAEBB0212012AD4BB02B9
:1014730012012AA0BE0212012A9DBF0212012AF9FB
:10148300BF0212012A21A30212012A4CA402120153
:101493002A3BA50212012A45A50212012A67A502C9
:1014A30012012A73A50212012A0CA70212012A397A
:1014B300A70212012A52A80212012AADA8021201A0
:1014C3002A19AA0212012AF3AA0212012A5BAB0209
:1014D30012012AC3AB0212012AF8AB0212012A3B02
:1014E300AC0212012AF1AE0212012A09AF02120163
:1014F3002A9EAF0212012AACAF0212012AF9AF02EF
:1015030012012A07B00212012A72B00212012AE361
:10151300B00212012A3AB10212012A4DE702120166
:101523002A6FE70212012A80E90212012A55EC020E
:1015330012012A74ED0212012A32EE0212012A2844
:10154300EF0212012A4FC50312012A74C5031201C7
:101553002AE2C50312012A26920312012A2F9203BB
:1015630012012A38920312012A1A930312012ACF75
:10157300940312012A03950312012A3295031201DF
:101583002A66950312012A95950312012AC9950328
:1015930012012AF5950312012A38960312012A67CC
:1015A300960312012AAE960312012A04970312012D
:1015B3002A37970312012A87970312012AB6970342
:1015C30012012A05980312012A48980312012A7767
:1015D300980312012AA8980312012ADE9803120124
:1015E3002AD0FF0112012AF6C703E066701008A390
:1015F300E066700A08A3E066700408A3E06622E4CC
:10160300936670130874019366700C0874029366F2
:101613007005087403936622C3E09608A3E0960856
:10162300A3E09608A3E096A2D265D03322C3E7963F
:101633000809E7960809E7960809E79622C3E096A2
:1016430008A3E09608A3E09608A3E09622C008C387
:10165300E096F50808A3E096420808A3E09642083E
:1016630008A3E09645087001D3D00822080808EAC9
:10167300C0E0EBC0E086F0E7A4FA180986F0E7A41F
:101683002AFA180986F0E7A42AFA180986F0E7A4CB
:101693002AFA1986F0E7A4FBE5F02AFA190886F07E
:1016A300E7A42BFBE5F03AFA190886F0E7A42BFB35
:1016B300E5F03AFA18180986F0E7A4C5F02BFBE425
:1016C3003AFA1908E7C5F0C6A426F6E5F03BFBE4B1
:1016D3003AFA1886F0E7A4F6E5F00826F6E43B08A4
:1016E300F6E43A08F6D0E0FBD0E0FA2260160808E8
:1016F30008C6C313C618C613C618C613C618C6131E
:10170300C6D5E0EA227009080808226016181818DE
:10171300C6C333C608C633C608C633C608C633C6EF
:10172300D5E0EA22E627F60809E637F60809E637A0
:10173300F60809E637F622E026F608A3E036F608AF
:10174300A3E036F608A3E036F622E026F008A3E08D
:1017530036F008A3E036F008A3E036F022C3E6979C
:10176300F60809E697F60809E697F60809E697F6F4
:1017730022C3E0C696F608A3E0C696F608A3E0C621
:1017830096F608A3E0C696F622C3E096F008A3E017
:1017930096F008A3E096F008A3E096F022E056F650
:1017A30008A3E056F608A3E056F608A3E056F6228F
:1017B300E056F008A3E056F008A3E056F008A3E0D3
:1017C30056F022E046F608A3E046F608A3E046F604
:1017D30008A3E046F622E046F008A3E046F008A39B
:1017E300E046F008A3E046F022E0F608A3E0F6089E
:1017F300A3E0F608A3E0F622E6F008A3E6F008A3C8
:10180300E6F008A3E6F022E0FAA3E0FBA3E0FCA3E2
:10181300E0FD22EAF0A3EBF0A3ECF0A3EDF022CA83
:10182300C0E0E6F0A308DAFAD0E0FA22CAC0E0E0AA
:10183300A3C582CCC582C583CDC583F0A3C582CCA5
:10184300C582C583CDC583DAE6D0E0CA22C3E49856
:10185300F8E499F91218918026C3E49AFAE49BFB01
:10186300E920E7E9121891E498F8E499F922C3E42E
:1018730098F8E499F9121891E498F8E499F9C3E413
:101883009AFAE49BFB22EB20E7CFE920E7E0B900DB
:1018930010BB0008E88AF084F8AAF022E4FBC8FA37
:1018A30022EB70227B10C833C8C933C9335007C336
:1018B3009AC3DBF280069A50012ADBEAC833F4C8E4
:1018C300C933F4C9FA2275F008E4C833C8C933C967
:1018D30033C99AC99B5004C92AC93BD5F0ECFBC84C
:1018E30033F4C8E4C9FA22600D08C6A2E713C61888
:1018F300C613C6D5E0F322600C08C6C313C618C6C8
:1019030013C6D5E0F422700422600D18C6C333C693
:1019130008C633C6D5E0F41822251010AF08F51019
:10192300400215118008F51040021511D2AF22C0F4
:10193300D0251010AF08F510500205118008F510DE
:1019430050020511D2AFD0D0222510F58210AF0876
:10195300F510400215118008F51040021511D2AFA1
:10196300851183222510F582E43511F58322E47372
:101973002510C582C0E0E51134FFC583C0E0E51042
:10198300C3958224F810AF088583118582108008DF
:10199300858311858210D2AFCEF0A3E520F0A37822
:1019A30008E608F0A3DEFAEFF0A3E58124FAF8E6EF
:1019B30008F0A3E608F0A3E608F0A30808E608F099
:1019C300A3E608F0A315811581D0E0FED0E0F81559
:1019D3008115811581E8C0E0EEC0E0222510C582A3
:1019E300C0E0E51134FFC583C0E0E510C395822450
:1019F300F910AF08858311858210800885831185CE
:101A03008210D2AFCEF0A3E520F0A37808E608F069
:101A1300A3DEFAEFF0A3E58124FBF8E608F0A3E6E2
:101A230008F0A30808E608F0A3E608F0A31581155B
:101A330081D0E0FED0E0F815811581E8C0E0EEC06A
:101A4300E022851183851082E0A3FEE0A3F52078D0
:101A530008E0A3F608DFFAE0A3FFE0A3C0E0E0A3F9
:101A6300C0E0E0A3C0E0E0A3C0E0E0A3C0E010AFAB
:101A7300088582108583118008858210858311D2A1
:101A8300AFD083D082020127851183851082E0A322
:101A9300FEE0A3F5207808E0A3F608DFFAE0A3FF51
:101AA300E0A3C0E0E0A3C0E0E0A3C0E0E0A3C0E0A7
:101AB30010AF088582108583118008858210858385
:101AC30011D2AFD083D08222C0D02510C582C0E00E
:101AD300E51134FFC583C0E0E510C3958224F310FC
:101AE300AF08858311858210800885831185821054
:101AF300D2AFC8F0A3E9F0A3EAF0A3EBF0A379080F
:101B0300E709F0A3D8FAECF0A3EDF0A3EEF0A3EF0E
:101B1300F0A3D0E0F0A3D0E0F0A3D0E0F0A3E52061
:101B2300F0A3E5F0F0A322851183851082E0C0E0E5
:101B3300A3E0F9A3E0FAA3E0FBA37808E0F608A387
:101B4300DFFAE0FCA3E0FDA3E0FEA3E0FFA3E0C017
:101B5300E0A3E0C0E0A3E0F5D0A3E0F520A3E0A379
:101B6300F5F010AF088583118582108008858311F5
:101B7300858210D2AFD082D083D0E0F8D0E0327427
:101B8300048006740280027401C0E0F40412194C4C
:101B9300D0E0121822227404800474028000CCC0A6
:101BA300E0EDC0E0E510C39CCCAD1150011D10AFBA
:101BB300068C108D1180068C108D11D2AF12182F48
:101BC300D0E0FDD0E0FC22D083D082E9C0E0E493F2
:101BD300A3C386F0C5F095F0F908E493A386F0C596
:101BE300F095F0700BE493A3C3994005E9048002D8
:101BF300A3E475F002A42582F582E5F03583F5832D
:101C0300D0E0F9E493A3C0E0E493C0E022D083D012
:101C130082ECC0E0EDC0E0E493A3FCE493A3FDED0C
:101C23004C600D121C5CEC24FFFCED34FFFD80EFD7
:101C3300E493A3FCE493A3FDED4C600D121C9BEC19
:101C430024FFFCED34FFFD80EFD0E0FDD0E0FCE4A9
:101C530093A3C0E0E493C0E022C0E0C3E4939608FA
:101C63007401939618400FE4936670080874019307
:101C7300661870007019A3A3C3E4939608740193C4
:101C83009618A3A3400DD0E0D0E0D0E0021C4CA3F3
:101C9300A3A3A3A3A3D0E022C0E0C0F088F0E49301
:101CA3006670080874019366187000A8F0A3A37007
:101CB3000BD0F0D0E0D0E0D0E0021C4CA3A3D0F0D6
:031CC300D0E0224C
:101CC800FFFFFFFFFFFFFFFFFFFFFFFFC0E074F212
:101CD800121ACB1205377F01021B2AC0E074F112D9
:101CE8001ACB750801750900900A01121D3BE078AE
:101CF80008121909A808E58A586031E58D58602C42
:101D0800E8F4528A900A01E02401F8121D44600C9C
:101D180088828983121D3B1219718010900A01E094
:101D280024030808121D446003120573C2EB7F02E6
:101D3800021B2AE0F8A3E0F583888222A3E034009E
:101D4800F988828983E0FAA3E0FBEA4B22C0E074B9
:101D5800F2121ACB900A1DE0600C900201E07006A6
:101D6800E5F9C2FA80031205B5021CDEC0E074F280
:101D7800121ACB120555021CDEC2C753BEFC3274C0
:101D8800F51219DFEAFEEBFFEE2434F8EF3400F920
:101D980088088909EE2435F582EF3400F583E0F8E8
:101DA800EE2437F582EF3400F583E0F50AEC850A76
:101DB800F0A4FCAAF0850AF0EDA42AFDE82CF8E4CA
:101DC8003DF97A257B00121891EA850882850983F6
:101DD800F05407F87401B800028004C333D8FCC07B
:101DE800E0E0131313541FF8EE28F8EF3400F9E875
:101DF800245DF582E93400F583D0E0F8E058600806
:101E0800EE2434F582EF801EEE2436F582EF34009E
:101E1800F583E0F5F0EA84A8F0EE28F8EF3400F94D
:101E2800E82438F582E93400F583E0F97F04021AE2
:101E38008B74F51219DF8A088B09EA2434F582EBD2
:101E48003400F583E0C0E0EA2435F582EB3400F590
:101E580083D0E0F08A828B83A3A3A3A3A3A3A3C008
:101E680082C0838A828B83A3A3A3A3A3E0F8A3E001
:101E7800F9D083D082E0C398FEA3E099FFEA2480DA
:101E8800F582EB3400F583E064017049EA2481F5BA
:101E980082EB3400F583E0FCA3E0FD8A828B83A308
:101EA800A3A3A3A3A3A3E0FAA3E0FBC3E89AE99B37
:101EB8004003021F65C3EA9CEB9D40197CAB7D077C
:101EC800AA08AB091211C7E5082480F582E5093490
:101ED80000F583E4F0E5082434F8E5093400F9E86E
:101EE800FCE9FDE5082435F582E5093400F583E0D1
:101EF800F8E5082437F582E5093400F583E0F50AAA
:101F0800EE850AF0A4FEAAF0850AF0EFA42AFFE8FD
:101F18002EF8E43FF97A257B00121891EA8C828D1D
:101F280083F05407F87401B800028004C333D8FC66
:101F3800C0E0E0131313541FF8E50828F8E5093446
:101F480000F9E8245DF582E93400F583D0E0F8E093
:101F5800586017E5082434F582E509802FC3E89C0A
:101F6800E99D5003021EC4021EBDE5082436F58211
:101F7800E5093400F583E0F5F0EA84A8F0E50828DF
:101F8800F8E5093400F9E82438F582E93400F583E6
:101F9800E0F91227F7021E34C082C08385108285BB
:101FA8001183E0F8A3E0F9C3EA9CEB9D500BC3EC66
:101FB80098ED99401279018010C3EA98EB9940F5A1
:101FC800C3EC98ED9950EE7900D083D08222EAC311
:101FD8009CFAEB9DFB2200008512878513C622C060
:101FE800E0C0D0E8C0E0E9C0E0EAC0E0EBC0E0EC67
:101FF800C0E0EDC0E0C082C083C0F0759B00906176
:1020080082E0A2E6503DE591A2E650377591BF9077
:102018000678E0640570081212FF12130B80031291
:102028001305751200121377E9900679F0790012FA
:10203800136B1211377A017B00900677E0F91207CB
:102048004D8049E0A2E55024E591A2E5501E759126
:10205800DF900678E0640D7013900699E004F06450
:10206800287002E4F07A00E0F9121407906181E028
:10207800A2E35009E5E9A2E3500375E9F7A3E0A25A
:10208800E75009E591A2E7500375917FD0F0D0831E
:10209800D082D0E0FDD0E0FCD0E0FBD0E0FAD0E088
:1020A800F9D0E0F8D0D0D0E032C0E0C0D0C082C0D3
:1020B80083906183E0A2E05009E5BFA2E050037578
:1020C800BFFEE0A2E15009E5BFA2E1500375BFFDE4
:1020D800E0A2E25009E5BFA2E2500375BFFBE0A20F
:1020E800E35009E5BFA2E3500375BFF7E0A2E4504F
:1020F80009E5BFA2E4500375BFEFE0A2E55009E58A
:10210800BFA2E5500375BFDFE0A2E65009E5BFA214
:10211800E6500375BFBFD083D0828088C0E0C0D0AE
:10212800E8C0E0E9C0E0EAC0E0EBC0E0ECC0E0ED08
:10213800C0E0C0F0E5A7A2E4500FE5A1A2E4500971
:1021480053A7EF75A1EF122189E5A7A2E5500CE589
:10215800A1A2E5500653A7DF75A1DFE5A7A2E150CC
:1021680009E5A1A2E1500375A1FDE5A7A2E2500C83
:10217800E5A1A2E2500653A7FB75A1FBD0F002200F
:102188009A74F81219DF751201900678E0640670E7
:10219800077A007B001212E7A2AFE433FED2AF90B9
:1021A800067DE0640170187A207B00900677E0F9DC
:1021B8001208497A207B00900677E0F912075390BD
:1021C8006182E0D2E6F085C613801690067CE06452
:1021D800017008E5C654F84405F5C653BEFC121F45
:1021E800E07401651260E453BEFCEEA2E092AF7F9A
:1021F80001021A8B8E148F15858219858318851014
:1022080082851183E0CEA3E0CF851982851883EB00
:10221800C9EAC8EDCBECCA75F010C3E833C8E93396
:10222800C9EA33CAEB33CBC3EA9EF517EB9FF51621
:10223800B35004AB16AA17EC33CCED33CDD5F0DA96
:10224800AE14AF152274F11219DF74F412191C744C
:1022580004121967ECF0A3EDF08A0A8B0B9006784C
:10226800E024F7C3940550069090420223B5121259
:102278008D8A088B09EA450970030223B212131DDF
:102288008A0C8B0DAE0CAF0D12131DEA6E7002EBAB
:102298006F60EAAC0AAD0B7406121967AA82AB83A9
:1022A800121323850882850983A3A378081217ECE3
:1022B80090901E78081217A08510828511837808DF
:1022C8001217FB7406121967780C1217EC90901EFF
:1022D800780C1217A0851082851183780C1216507D
:1022E800402A85108285118378081217EC780879BE
:1022F8000C12176085080C85090D850A0E850B0FD1
:1023080090905E780C12165040438049850C0885E1
:102318000D09850E0A850F0B8510828511837808B3
:1023280012177490905E78081216505020750800A5
:10233800750900750A00750B017808790C12176089
:10234800851082851183780812173A800890904288
:1023580078081217EC750C19750D00780C121B868D
:1023680074097808121708FAAB09AC0AAD0B1221E8
:10237800FC74021219328A0C8B0D8C0E8D0F74109E
:10238800780C1216EF900678E06408600AE064069C
:102398006005E06405701BC3EC9406ED94004012E0
:1023A800909062780C12173A800890903E780C1240
:1023B80017EC7404121967E0F8A3E0F583888278B3
:1023C8000C1217FB740C1219327F08021A8B74F75F
:1023D8001219DF1213351212D5E5C654804449F597
:1023E800C6E59E547F644970F8906185740FF0903B
:1023F8000804E0F47002A3E0604E900805E060086D
:1024080014601B14602E804075080175090090083F
:1024180004E07808121909E508F45280802A750842
:1024280001750900900804E07808121909E508F414
:1024380052908014750801750900900804E0780826
:10244800121909E508F452A079007F02021A8B7468
:10245800F71219DFE9FE901CCCE493F46008E493CA
:10246800F9121125800953C680E59E547F70FA122F
:1024780012DB900804E0F47002A3E0604B900805BA
:10248800E0600814601A14602C803D750801750915
:1024980000900804E07808121909E50842808028AD
:1024A800750801750900900804E07808121909E513
:1024B8000842908013750801750900900804E078B7
:1024C80008121909E50842A012128D8A088B09A87A
:1024D80008A909E8496015E5E170FCE82414F582CB
:1024E800E93400F583E0F46003E0F5E174016E700F
:1024F8000A7A01900677E0F91207D102245274F1A2
:102508001219DF8A0C8B0D8C0E8D0F740F12196740
:1025180078081217EC90901E780C1217A090901E55
:1025280078081217A0780C79081216305015780C14
:102538007908121760909066780C12165040157939
:102548000180137808790C12176090906678081249
:10255800165040EB79007F08021A8B74F11219DFCC
:1025680074FC12191C851082851183EAF0A3EBF024
:10257800A3ECF0A3EDF0741312196778081217ECA6
:1025880090901E780C1217EC851082851183780CB8
:102598001217B390901E78081217A0851082851123
:1025A8008378081216404014851082851183780CB0
:1025B8001217EC780C7908121760801E750C0075DC
:1025C8000D00750E00750F01780C790812176085DB
:1025D8001082851183780C12173AAA0CAB0DAC0E39
:1025E800AD0F740412193202255E74F11219DF8AD4
:1025F8000C8B0D8C0E8D0F740F121967780812173B
:10260800EC90901E780C1217A090901E7808121764
:10261800A07808790C1216304011780C7908121736
:1026280060AA0CAB0DAC0EAD0F800F7808790C12B8
:102638001760AA08AB09AC0AAD0B02255E90901E84
:1026480078081217EC8A828B8378081217B37F04F4
:10265800021A8B74F51219DF8C828D837808121791
:10266800EC8A828B83780812178CEA2404F8EB34FE
:1026780000F98C828D83A3A3A3A3E0FCA3E0FD88CB
:10268800828983C3E09CF0A3E09DF088828983C39C
:10269800E09420A3E0944E402290903A78081217D4
:1026A800EC8A828B83780812174D8A828B83A3A3C6
:1026B800A3A3E02420F0A3E0344EF0808074F51248
:1026C80019DFE9FE7A007B009003ECE064017008F2
:1026D8009007C1E0FAA3E0FBEEC333F8E433F974E2
:1026E800A528F582748F39F583E02AF508A3E03B25
:1026F800F5097808121B8690907612180A1221FCA8
:1027080074021219328A088B098C0A8D0B7410789E
:10271800081216EFAA08AB097F04021A8B74F1128B
:1027280019DF8A0C8B0D8C0E8D0F740F121967E050
:10273800FAA3E0FB7411121967E0F508A3E0F509A4
:102748007413121967E0FEA3E0FF7808121B86EAEB
:102758002401F508EB3400F509E4F50AF50B780CCB
:10276800790812166F90907278081217EC780C7925
:102778000812166FAA0CAB0DAC0EAD0F1221FC742B
:10278800021219328A088B098C0A8D0B8B0DEA45C7
:102798000D60047A0180027A00741078081216EF2E
:1027A800EC2AFCED3400FDECF8EDF97A717B0212AD
:1027B8001891880889098E828F8378081217FBEC94
:1027C800F8EDF97A717B02121891EA2401F508EB09
:1027D8003400F509740578081219098E828F83A3CD
:1027E800A3A3A3E508F0A3E509F07F08021A8BC0AC
:1027F80082C083E9906000F0D083D08222C082C07A
:1028080083E9900398F0022BF7C082C08390039766
:102818007480F0120939022BF774F6121973EAFE64
:10282800EBFF54806017800312071D90039812492C
:1028380034EA4B70F3EEFAEF6480FB8021EE540229
:102848006006EE6402FA8016EEA2E050046401808D
:10285800F454046005EE640480EB7A007B00022FD8
:10286800D274F012197374F812191C8A088B098C27
:102878000A8D0B90908A7808121650500890908E06
:1028880078081217EC851082851183AC82AD8374A9
:1028980004121967AA82AB8312224D12381A706388
:1028A80085108285118378081217EC12381A604C4B
:1028B80090039A7401F09003997402F090909278C2
:1028C80008121650400812381A60030229E7C2AFEE
:1028D800900399E0F91223D6E960030229E512383A
:1028E8001A70030229A29090967808121650400395
:1028F80002298D90909A121B9902299290039AE4CA
:10290800F08079750C7D750D00780C121B86740C9F
:102918007808121708FAAB09AC0AAD0B1221FC743F
:10292800021219328A088B098C0A8D0B74107808E8
:102938001216EF851082851183780C1217ECE50CBE
:10294800450D450E450F601B85108285118378085B
:10295800121640500E85108285118378081217ECE4
:102968000228B81206C374041219671218169003C5
:102978009AE4F0E508450960030228BE90039974BB
:1029880003F00228CE7808121B8274081219671205
:10299800180A1206BD7404121932E5A8FEE5B8FF3C
:1029A800E59AF50853A82053B820539A12D2AF538A
:1029B800BEFC900399E042BE781AE5ADA2E050FA59
:1029C80012093390039AE064017006A2C74002E43A
:1029D800F08EA88FB885089AE0F9122457D2AF7400
:1029E800080234CB781AE9F602012774F412197335
:1029F80074FC12191C851082851183124CD2741034
:102A080012196778081217ECC2AD90909E780812D8
:102A1800173A851082851183780812174D740212AF
:102A28001967E0F5977401121967E0F59685108229
:102A3800851183E0F595C2C7D2AD023103C082C0CB
:102A48008374FC12191CE595851082851183F0E5C5
:102A580096C0E07401121967D0E0F0E597C0E07401
:102A680002121967D0E0F07403121967E4123FD913
:102A780012180A7404121932022BF779000201277E
:102A88007A007B0002012780F780F574F71219732A
:102A9800E9700579FF120759022EDFC082C08374DE
:102AA800FE12191C7902851082851183AA82AB83D4
:102AB80012105F851082851183124375740280B5E8
:102AC800C082C0831215E7022BF774F7121973EC52
:102AD800F8EDF9740912196712564180198882892C
:102AE80083E08A828B83122C46A882A9838A828BF0
:102AF80083A3AA82AB83122BC570E2022EDF74F780
:102B08001219737409121967123348EC2EF8ED3F45
:102B1800F9E824FF18E934FFF9801788828983E0EF
:102B28008A828B83F0E824FF18E934FFF9A3AA828C
:102B3800AB83EEFCEFFDEC24FF1EED34FFFFEC4D04
:102B480070D9022EDF74F21219738A088B098C0A65
:102B58008D0BAA0AAB0B123FCB600F780A121B86AB
:102B6800AC08AD09125ED2121932EEFAEF0240BD7E
:102B780074F5121973ECF8EDF9740B121967125603
:102B880041122BC56030EAFEEBFF8E828F83A3AA29
:102B980082AB8388088909850882850983A3A8826E
:102BA800A9838E828F83E0FE850882850983E06E83
:102BB80060CF7900800279017F03021A45ECFEEDAF
:102BC800FFEE24FF1CEF34FFFDEE4F2274F61219BE
:102BD80073E9FE8C088D097808121B868E08AC08EC
:102BE8007D001215E17402022FCFECA2E092AFD063
:102BF80083D082020127C082C0831206E7022BF726
:102C080074F6121973EAFEEBFFEE4F70067A007B3A
:102C1800008028EE240512303F60F288828983E420
:102C2800F0A3122C46A3EEF0A3EF122C46A3A3A305
:102C380074FFF0E82405FAE93400FB022FD2F0888B
:102C4800828983A322C082C083EA4B7004790580FD
:102C580016122CED60047904800DEA24FBFAEB349B
:102C6800FFFB1207BF7900022BF774F71219737C68
:102C780000022EDC74F71219737C01022EDC74F743
:102C8800121973E9FEECFFEA4B7004790580539042
:102C980090F9E0F8EEC398400712071D79038042C7
:102CA800EA24FBF582EB122E581233C67005122C5B
:102CB800ED600512071D80D3EEF074016F700DEA08
:102CC800FCEBFD7A9B7B03120741800BEAFCEBFDD2
:102CD8007A9B7B0312073B7A007B80EEF912074D43
:102CE8007900022EDF122DBEE0F42274F41219735B
:102CF8008908750A00750B007E007F00A2AFE433D7
:102D0800F509C2AF90039B8011EE4F7004880A89C1
:102D18000BE824FBF582E9122E581233C66023E82B
:102D280024FFF582E9122E58E0650870DCEE4F703A
:102D380006E8FEE9FF80DA7A007B80A90812074DD1
:102D4800800D7A007B80A908120753EE4F60157832
:102D58000A121B86EEFCEFFD7A9B7B031207477471
:102D680002121932E509A2E092AFEEFAEFFB023146
:102D78000874F7121973EAFEEBFFA2AFE433FAC244
:102D8800AF122E52E4F0A31233D41233C670098E58
:102D9800828F83801112368A122E5D123348EE4FCD
:102DA8008882898370EF124CD8EAA2E092AF022E93
:102DB800DF92AF022FD2EA24FFF582EB34FFF583CE
:102DC8002274F7121973E5A8FEC2AF8A828B8312A8
:102DD800368A122E52123CAC8A828B83124CD8EE61
:102DE800A2E780C874F5121973740B1219671236AA
:102DF8008AA2AFE433F50AC2AFEC24FBFEED34FF40
:102E0800FF8A828B83124DA1EC65087003ED65097A
:102E18008E828F83700CE0F8A3124C8CE8F0A3E943
:102E2800800F1236C124FBF582E9122E58EAF0A36E
:102E3800EB1233D4E4F0A3F0EC24FF122E5574FF08
:102E4800F0E50AA2E092AF022BC0EC24FBF582ED7C
:102E580034FFF58322E824FBF8E934FFF9888289F6
:102E6800832274F7121973E9FD9090F9E0F8EDC325
:102E7800985029E5A8FEC2AFEDC333F8E433F990C2
:102E8800027EE028FCA3E0398C82F583E04AF0A3B7
:102E9800E04BF0EEA2E792AF790080027903803729
:102EA80074F7121973E9FE9090F9E0F8EEC39850A0
:102EB8001FE5A8FFC2AFEAF4FCEBF4FDEE122FBB4E
:102EC800E05CF0A3E05DF0EFA2E792AF790080024A
:102ED8007903800312072F7F01021A45E9F874FF6E
:102EE800687006C2AF790080027907020127C082A4
:102EF800C0831207AD90039BE4F0A3F090903E12BC
:102F0800180A9003F31218161207C51204A712071D
:102F1800B37900022BF7C082C08312076B80FB7461
:102F2800F61219737508001207A7E508122FBB12CD
:102F380033C6700D05089090F9E0F8E508C398408D
:102F4800E99090F9E0F8E508C3985058E5A8FCC264
:102F5800AFE508C333FEE433FF122FB1F988828945
:102F680083123052E4F0A3F0ECA2E792AFE50890A8
:102F78000C35F0F9747C2EF582748F3FF58312328C
:102F880066121971900C3574FFF0E5A8F9C2AF12FA
:102F98002FB18882F583E04AF0A3E04BF0E9A2E77D
:102FA80092AF80031207D7802190027EE02EF8A30B
:102FB800E03F22C333F8E433F990027EE028FAA315
:102FC800E0398A82F583221219327F02021A457487
:102FD800F6121973E9FDEA4B70047900801A78003B
:102FE800800F8808EA2508F582EB1256316D70EAE1
:102FF80008E8C39C40EC7901022FD274F6121973C9
:10300800EAFEEBFFEE240412303F602488828983B5
:10301800A3A3EEF0A3EFF090039D123052124CCC14
:1030280090039D123CACE82404FAE93400FB8004C8
:103038007A007B00022FD2FAEF3400FB1207B98A1C
:10304800088B09A808A909E8492212437F888289C0
:10305800832274F7121973EAF8EBF97C007D0012E9
:1030680036BEFEE9FF800BEAFCEBFD8A828B8312F9
:103078004375EA4B602AEA2404F8EB123C9C40E7CB
:103088001231559EE5839F40DE8A828B8312368AF1
:10309800EC4D700590039D80048C828D831235451C
:1030A800022EDF74F4121973EAFEEBFF8C088D0907
:1030B80012310D6040C3E49508FAE49509FBEE2A45
:1030C800FAEF3BFB8A088B09E82404FCE93400FD8D
:1030D800C3EA9CEB9D401E8882898312563FE82CE8
:1030E800F582E93DF583A3A3A3A3C3E5829508E58B
:1030F8008395095004EEFAEFFB8005740412193227
:103108007F04021A451207898A0A8B0BA80AA90BA1
:10311800E84922C082C083EAF8EBF91236BEFCE91E
:10312800FD80078A828B83124375EA4B6013EA2479
:1031380004F8EB12314C40EB1231559CE5839D406D
:10314800E2022BF73400F9C3EC98ED99228A828BBE
:1031580083124C9CEA28F582EB39F583A3A3A3A339
:10316800C3E5822274F7121973E9FE900C36E0F475
:103178007002A3E07013EE900C36F0A3E4F07C3CF0
:10318800FDF97A9F7B0312070B022EDF74F01219E8
:1031980073890AEAFEEBFF54806007EF6480FB0244
:1031A8003263EE4F700302325F79008E088F09E9AF
:1031B80078081218FAE508A2E0400302324B900C96
:1031C80036850A08E0C39508FAA3E09400FBEA757F
:1031D800F00FA4FAA8F075F00FEBA428FB8908EA11
:1031E8002508F508EB3400F5097402780812190966
:1031F800749F2508F50874033509F509750C0175E0
:103208000D00E9780C121909850C0E850D0FE508DB
:103218002402F50CE5093400F50D850C82F58312BE
:1032280043758508828509831232661219718508EB
:1032380082850983E4F0A3F0850C82850D83F0A3D1
:10324800F0800A09E9C3940F50030231B3EE650E0A
:10325800FAEF650F0231A67A007B00023AF01232CB
:103268006A22E0F8A3E0F58388822274F0121973C9
:1032780074FC12191C124CC67402121967124CD82D
:10328800741412196712334885108285118312331A
:10329800C670057902023343750C00850C08750960
:1032A8000074027808121909749F2508F50E740332
:1032B8003509F50F850E82F5831233C6706F8E08B7
:1032C8008F09E4F50AF50B7808121B827508017559
:1032D8000900E50C75F00F84E5F07808121909AAC1
:1032E80008AB09900C36E0F875F00FE50C8428F966
:1032F80012083D7404121932E97032851082851162
:103308008312334E123CAC740212196712334EA367
:10331800A3123CAC74161219671233C6600B7416EC
:1033280012196712326CE50CF07900800E050CE575
:103338000CC3940F50030232A3790874040234CBEF
:10334800E0FEA3E0FF22124C9E850E82850F8322A9
:1033580074F41219738908E9C3940F5054890A75D3
:103368000B007402780A121909749F250AFE740367
:10337800350BFF8E828F831233C66035750A01754F
:103388000B00E50875F00F84E5F0780A121909AA10
:103398000AAB0B900C36E0F875F00FE5088428F9B5
:1033A8001208498E828F83E41233CCF0A3F0F9809F
:1033B8000279020231088E828F83A3A3A3A3124C41
:1033C8009EE84922F0A31233D4A3A322F08E828F61
:1033D800832274F0121973750800750900121329F5
:1033E8009003DBE06A7003A3E06B70030234BB90C8
:1033F80003DB12368AEAC398F8EB99F99003DBEA03
:10340800F0A3EB801E24CFF8E934CCF9E50824FEBC
:10341800F508E509341FF5099003DDE02405F0A35C
:10342800E03400F0C3E89432E99433E850D775F0FB
:1034380005A4F8AAF075F005E9A42AF99003DDE0DF
:1034480028FAA3E039FB8A0A8B0B7403780A12184E
:10345800FAE508250AF508E509350BF509EA5407E0
:103468009003DDF0A3E4F0E508450960469003DF2A
:10347800E02508F0A3E03509F09003DFC3E094E805
:10348800A3E0940340231234BE121891880C890DCE
:10349800E4F50EF50F9003E1780C12174D1234BEC7
:1034A8001218919003DF124CCCAA08AB09E4FCFD7A
:1034B800120855023AF09003DF124C9E7AE87B031B
:1034C800227405121932023AF012326DA322123216
:1034D8006AA3A322E0F8A3E0F5838882A3A3A3222A
:1034E800C082C083901960E4F0A3F09019627462FE
:1034F800F0A3740DF0900D627448F0A37402F0907C
:103508000FAAF0A37480F0A374B4F0A37409F002B6
:103518002BF774F61219737A017B001207B9E5A824
:10352800FEC2AFEA24FEF8EB34FFF99019621235B7
:10353800459003E57401F0EEA2E7022DB9E8F0A387
:10354800E9F01207BF2274F21219737C007D007F24
:1035580000EA24020A0AEB3400FBA2AFE433FEC2FD
:10356800AF9003E5E06008EA9411EB9400500890EE
:10357800196212368A800478AC790F124D9D5480F6
:1035880060057F00023619EFA2E050728C828D83AD
:103598001252B35480F50DE50A2508F508E50B35F8
:1035A80009547FF509E50D4509F5098C828D8312CB
:1035B8004DAF547FF509C3E5089AE5099B4052ECE5
:1035C800F8EDF9E849700302367B88828983E0FCCC
:1035D800A3E0547FFDECC39AFCED9BFDC3EC94047F
:1035E800ED94004052E82AF582E93BF583124CD865
:1035F800EB4480FB88828983EAF0A3EB8041E509EC
:10360800547FFDC3E5089AED9B50B87F01E8FCE9BB
:10361800FD88828983E0F508A3E0547FF509E82551
:1036280008F8E93509124D9CE5084509600302359B
:103638008378007900803C88828983A3E04480F005
:103648009003E5E060249019621236C16A7002E9BD
:103658006B701788828983E0FAA3E0547FFBE82A1D
:10366800FAE93BFB901962124CCCE824020808E9FD
:103678003400F9EEA2E092AFE8FAE90240BD8E828A
:103688008F83124C9E22C082C083EA24FEF8EB345A
:10369800FFF9A2AFE433FCC2AF88828983A3E05468
:1036A8007FF09019621236C19AE99B500690196210
:1036B800123CAC022BF290039D12437FE822C08299
:1036C800C0839003ECE4F09003E6F0A3F0022BF73C
:1036D800C082C083E99003ECF0022BF774F612194C
:1036E80073E9FB9090F9E0F8EBC398400479038004
:1036F80030750801750900EB7808121909AC08AD96
:1037080009EA7011ECF4F8EDF4F99003E6E058F0EA
:10371800A3E05980099003E6E04CF0A3E04DF0796E
:1037280000022FD274F41219739003ECE060189021
:1037380003E61233C67010E5A8FEC2AF12085BEEAE
:10374800A2E792AF1206B102310874F41219737429
:10375800FC12191C7F009003F0E4F09003EDF07E5A
:103768007D7508047509007808121B867402121901
:1037780067AC82AD837A007B00EEF91238B7121974
:1037880032851082851183C082C083909082780828
:103798001217ECD083D08278081215ED70199003B7
:1037A800EDE06010F91207EFEEF91207EF9003ED64
:1037B800E4F0801CEE80FA85108285118378081267
:1037C80017EC12381A7004EEFF8005EEF91207EFB5
:1037D8000EEEC3947F408A9003EDE07026EF7018D8
:1037E800797D1207E39003EE7404F0A3E4F09003EC
:1037F800F0E0601979008017F01207F5EFF9120868
:1038080007800AEF6004F91207E91207F579010247
:103818003103E5084509450A450B2274F712197367
:1038280074FC12191CE9FE90908212180A85108205
:10383800851183121816851082851183AC82AD8399
:103848007A007B001208139003F0E07005EE9003F5
:10385800EDF07404121932022EDF74F41219737425
:10386800FF12191C89089003F0E060089003F074B7
:1038780001F0802C12094B7E007F00750A01750B40
:1038880000780A121B8674021219671238AD1219D1
:1038980032851082851183E0F470D11238FB40DB49
:1038A8007401023105AC82AD83EEFAEFFBA9081270
:1038B800093F74022274F412197374FF12191C89D7
:1038C800087E007F00750A01750B00780A121B86B6
:1038D80074021219671238AD1219328510828511D7
:1038E80083E0F46007A9081207E980051238FB4055
:1038F800D480ADEE24010EEF3400FFC39408227487
:10390800F412197374FC12191C7EFC7F07750804E5
:103918007509007808121B86740212196712395B40
:10392800121932851082851183C082C08390903A23
:1039380078081217ECD083D08278081215ED700A37
:10394800EE24FCFEEF1239E750C3123EBC123CAC29
:10395800023103AC82AD83EEFAEFFB9003EDE0F9A0
:1039680012093F74022274F412197374FC12191CA0
:103978008908EAFEEBFF8C09EE24FCFEEF1239E71A
:103988004056750A04750B00780A121B86740212D9
:1039980019671238AD12193274021219671239F206
:1039A80085090AE0650A7002A3E0700AEEC398FA76
:1039B800EF9400FB8026E9548070BDE82404FAE9FE
:1039C8003400FBC3EE9AEF9B400EEEC398F8EF99D4
:1039D800F9E824FCFEE980A57A007B000231033473
:1039E800FFFFC3EE9404EF940022E0F8A3E0F9850A
:1039F80010828511832274F012197374FB12191C3A
:103A08007404121967ECF0890E8A088B0974151270
:103A180019671252B385108285118374FFF0A3F0E1
:103A2800E50B4480F97402121967E50A123CADEA05
:103A3800250AFEEB350BFF851082851183AC82AD1C
:103A480083EEFAEFFBA90E1208137402121967121B
:103A58003ADF7402780A1218FAE50AF50F9003F0B3
:103A6800E07051750B00780A121B867419121967D9
:103A780012564185080A85090B7402780A1218FA49
:103A8800850E0CF50D7409780C121909E50A240045
:103A9800FAE50B123D98121932E50FF50A780A1269
:103AA8001B8A7418121967126092A90E12080D74F5
:103AB800011219327404121967123AD6A3748012CB
:103AC8003AE3851082851183123ADF0234C9E08512
:103AD8001082851183F022A3E0547F125C44EEFA31
:103AE800EFFBA90E120813227F08021A4574F01280
:103AF800197374F312191CE9851082851183F07506
:103B08000FFF647D7005750E7E8003750E7D750A46
:103B180004750B009003EEE024FCFEA3E08005EEA4
:103B280024FCFEEF1239E75003023C779003F0E0E3
:103B38006003023C977508047509007808121B8613
:103B48007405121967AC82AD83EEFAEFFB740212AA
:103B580019671239661219327403121967E0F47082
:103B680003A3E0F4702C740512196712368A548086
:103B780070ADE82404F8E9123C9C5003023C9774A9
:103B880005121967123CA5F8EF99F9E824FCFEE93B
:103B980080927403121967A3E0548070E2740312D0
:103BA8001967850F08E065087002A3E060D1740307
:103BB800121967E0F50FFCAA0AAB0BA90E1207FB56
:103BC8008B09EA450970B87405121967123CA5F506
:103BD80008EF99F5097407121967123CAC740112C1
:103BE8001967E4F0A3F0750C04750D00780C121B2E
:103BF80086740B121967AC82AD837403121967E0DF
:103C08002508FAA3E035091239621219327409122B
:103C18001967AC82AD837401121967E0250AFAA30B
:103C2800E0350BFBA90E1208137401121967E02482
:103C380004F0A3E03400F07407121967C082C0834F
:103C4800740112196712368AD083D082C3E098A310
:103C5800E09950927405121967E02404F8A3E0343F
:103C680000F9E50A28F50AE50B39F50B023B87A9A7
:103C78000E1207E39003F0E0700A9003EEE50AF0F5
:103C8800A3E50BF0851082851183E0F91207E9742A
:103C98000D0234CB3400F9C3EE98EF9922124C9EF2
:103CA800EEC39822E8F0A3E9F02274F112197374B4
:103CB800FC12191C890E8A088B098C0C8D0D741343
:103CC800121967E0FE8018E5082404F508E50934B0
:103CD80000F509E50C2404F50CE50D3400F50DEEAE
:103CE800FF74FF2F1E046043750A04750B00780AE1
:103CF800121B867402121967AC82AD83AA08AB093D
:103D0800A90E1238B7121932780A121B86AC0CADFC
:103D18000D7402121967AA82AB8312070574021286
:103D28001932E970A29003F07401F074040251048E
:103D380074F0121973890AEAFEEBFF8C0E8D0F904E
:103D480003F0E070487508017509007808121B86B1
:103D58008E088F09740278081218FA890CF50D7408
:103D680009780C121909E5082400FAE509123D98AA
:103D78001219327508017808121B8AAC0EAD0FEEC5
:103D8800FAEFFBA90A12080D7401121932023AF06F
:103D9800350DFB120945740222C082C0831207DD6B
:103DA800022BF774F012197374FB12191C890C8A10
:103DB800098C0E8D0FAC0C123EFC8A0A8B0BAE0AD6
:103DC800AF0BEE4F604E7508008039750A01750B10
:103DD80000780A121B86740212196712395B1219CD
:103DE80032851082851183E0F885080AE50E250AD8
:103DF800F582E50F12563168701AEE24010EEF3481
:103E080000FF0508E508C3950940C0E50965087085
:103E180003023EB785090885080AE50A2403F8E481
:103E28003400F97A047B00121889880A890B740215
:103E3800780A121909AE0AAF0B9003EE122FB4F9E3
:103E4800E82404F8E93400F9C3E89401E994084047
:103E58002B90903E12180A740112196712181674E2
:103E680001121967AC82AD837A007B009003EDE004
:103E7800F91208139003EDE0F9120807780E121BE7
:103E880086780A121B86AC0C9003EE1243759003D9
:103E9800EDE0F912080174041219329003F0E060A1
:103EA80004790A800C123EBCE028F0A3E039F079CE
:103EB800000234C9EE2404F8EF3400F99003EE222E
:103EC80074F412197389098A08ECFEEDFFAC091223
:103ED8003EFCEA4B601985080A750B00780A121B2C
:103EE80086EEFCEFFD1239631219327900800279EF
:103EF8000A0231089003EE12437F9003EDE0F912B5
:103F080007FB2274F112197374FE12191C124CC6A5
:103F1800890E741112196778081217EC85108285BA
:103F28001183E0FA1208318A0C8B0DAE0CAF0DEE3E
:103F38004F600D8E828F83A3A378081217FB807EB3
:103F48007A0D7B00123FCB60718E828F83A3A3A36F
:103F5800A3A3A3A3A3E50E123FD91246A5A3A3A327
:103F6800A3A3A3E8F0A3E91233CE78081217FB8EB7
:103F7800828F83E4F0A3F090903E12180A8E828F0D
:103F880083A3A3A3A3A3A3A3A3A31218169003F127
:103F98001233C69003F16017E0FAA3E08003E8FA51
:103FA800E9FB8A828B831233C670F38A828B83EE95
:103FB800F0A3EFF0EEFAEFFB80047A007B007402C6
:103FC8000251041207B98A0C8B0DAE0CAF0DEE4FDF
:103FD80022F085108285118322C082C0839003F16C
:103FE80080048C828D8312401E4D60238C828D83C9
:103FF800A3A3A3A3A3A3E06A7003A3E06B70E38C5D
:10400800828D83A3A3A3A3A3A3A3A3E06970D3EC86
:10401800FAEDFB022BF7125645EC22C082C083EA68
:104028004B600E8A828B83A3A3A3A3A3A3E4F0A36C
:10403800F0022BF774F4121973740C1219677808CC
:104048001217ECE5A8FFC2AF7808121B8212082BE2
:1040580074041219328B09A909EFA2E792AFEA4951
:10406800600479008002790802310874F212197329
:10407800740E12196778081217ECA2AFE433FEC267
:10408800AF7808121B8212082B7404121932EA4BFB
:1040980060128A828B83A3A3A3A3A3A3A3A3A37859
:1040A800081217FBEEA2E092AFEA4B600479008099
:1040B8000279088001FB7F06021A4574F41219730D
:1040C800A2AFE433F509C2AF1208318A0A8B0BAEEE
:1040D8000AAF0BEE4F6003120837E509A2E092AF72
:1040E800EE4F600479008002790602310874F212FA
:1040F800197390903E78081217ECA2AFE433FEC211
:10410800AF1208318A828B83E58245836007A3A3B7
:1041180078081217ECEEA2E092AFAA08AB09AC0A35
:10412800AD0B809274F012197374F912191C8A0875
:104138008B098C0A8D0B740312196778081217FB08
:10414800E5A8F9C2AF9003F3780812174DE9A2E782
:1041580092AF9003F11233C670030242FE9003F14E
:104168001233487401121967E4F0A3F0750C007556
:104178000D00A2AFE433851082851183F0C2AFEE43
:104188002402F50EEF3400F50F7405121967123387
:10419800C670207404121967E07018740312196746
:1041A800E0F8850E82850F83E0C3984006E0C39847
:1041B800F080457403121967C082C0838E828F8392
:1041C800A3A378081217ECD083D08278081216407F
:1041D8005017740312196778081217EC8E828F83B0
:1041E800A3A3780812178C800F90903E12180A8E9D
:1041F800828F83A3A3121816850E82850F8312332C
:10420800C670531233BE70598E828F83A3A3A3A3A3
:10421800A3A3A3A3A378081217EC12381A60528E2E
:10422800828F83A3A3A3A3A3A312431060438E8208
:104238008F83A3A3A3A3A3A3A3A31246848E828FD1
:1042480083A3A3A3A3A3A3A3A3A312180A8E828F55
:1042580083A3A3121816850E82850F831233C670A6
:10426800051233BE600B8E828F83A3A31233C270F4
:1042780026123686740112196712431070059003CE
:10428800F1800B7401121967A3E0F5838A82123C4E
:10429800AC8E0C8F0D800A7401121967EEF0A3EF33
:1042A800F08E828F83124303A2E092AFE50C450D96
:1042B800603D850C82850D831233C4702B850C827A
:1042C800850D831233C27020850C82850D83A3A3CC
:1042D800A3A3A3A3124375850C82850D83A3A3A36F
:1042E800A3A3A3A3A3124684AA0CAB0D1207BFEE87
:1042F8004F600302417474070234CBE0FEA3E0FF71
:10430800851082851183E02212437FEA4B2274F0E4
:104318001219739003F11233C660399003F11243F6
:104328007590907E780C1217EC8A828B83A3A37801
:10433800081217EC780C7908121630500C85080C06
:1043480085090D850A0E850B0F8A828B831243100F
:10435800600A80D590903E780C1217ECAA0CAB0D31
:10436800AC0EAD0F023AF0850C82850D8312437FA7
:1043780022850C82850D83E0FAA3E0FB2274F012FB
:1043880019738908ECFEEDFF750900898285820A98
:10439800750B008A0C8B0D780C121BCA0103133F96
:1043A80046D143F24306443F461C4470448744C008
:1043B80044F0440D452A4542455E453F467B45B895
:1043C80045D545EF450446224674106508701575B5
:1043D8000A10780A121B867AFA7B03125ED2121927
:1043E800320246587509180246587410650870F468
:1043F800750A10780A121B867A0A7B0480DD740419
:10440800650870E08E828F8312180A90041A1218B9
:10441800160246587401650870CA900C38E0F88E88
:10442800828F83E0900C38F0E8601CE0600302465D
:10443800589003F8E0640260030246589003F7E0DE
:10444800F9120B3D024658E070030246589003F8F3
:10445800E06401600DE064036008E0640460030246
:10446800465812467D0246587402650860030243A6
:10447800EC123686900C39E8F0A3E9F0024658E9C8
:10448800C3942040030243EC7C1F7D0079007A3CF2
:104498007B0C12070B780A121B86EEFCEFFD7A3CA8
:1044A8007B0C125ED2121932E508900C3BF07C3C72
:1044B8007D0C124671024658E9C39420400302431A
:1044C800EC7C1F7D0079007A257B0412070B780AA3
:1044D800121B86EEFCEFFD7A257B04125ED21219C0
:1044E80032E5089004248093740165086003024350
:1044F800EC8E828F83E0C3940440030243ECE09087
:1045080004440244837401650860030243EC8E820C
:104518008F83E0C3940440030243ECE09004450217
:1045280044837406650860030243EC750A06780A3A
:10453800121B867A467B040243E374016508600314
:104548000243EC8E828F83E0C3940840030243EC5D
:10455800E090044C80AC7401650860030243EC8E63
:10456800828F83E0C3940440030243ECE090044D3F
:104578000244837402650860030243EC1236869095
:10458800044E123CACE84970030246589003F8E028
:104598006405600302465890044E1259A8E4F50ECB
:1045A800F50F780C121B82124696121932024658E1
:1045B8007401650860030243EC8E828F83E0C39424
:1045C8000240030243ECE090045802448312468AF6
:1045D80060030243EC12466840030243EC900C5D12
:1045E800EAF0A3EB02448312468A60030243EC120A
:1045F800466840030243EC900C5F80E412368674F0
:1046080002650860030243ECC3E894F4E9940140AE
:10461800030243EC90045902447F12468A60030265
:1046280043ECEA24F61246609477E9940C400302BE
:1046380043EC900C6180A9124F6F50117402650809
:10464800700B8E828F83124F77F5098003750902EC
:10465800A909023AF0EA24FAF8EB34FFF9C3E82290
:1046680012465D947BE9940C22FB7A019003F7E0F3
:10467800F9120B37227A017B009003F7E0F9120751
:104688004D228E828F8312437F74026508227A023C
:104698007B009003F7E0F912083D7404221246A942
:1046A80022E0F8A3E0F98E828F832274F612197340
:1046B8009003F8E0703CEA4B6006900450124CCC32
:1046C80075081A7509047808121B8675080A750991
:1046D800047808121B867CFA7D037B009003F9E0BE
:1046E800FA9003F7E0F912092D74041219327900CF
:1046F80080027911022FD2C082C0839003F8E0644F
:1047080005700512494B80027912022BF774F712D3
:104718001973E99003F7F09003F8E4F0900C5B74D8
:10472800FFF0A3F0120B859003F97404F07C107D60
:104738000079007AFA7B0312070B7C107D00790060
:104748007A0A7B0412070B90903E12180A90041AFA
:10475800121816900444E4F0900445F090044C7448
:1047680007F090044DE4F07CFA7D037A1079021288
:1047780008257C0A7D047A1079031208257C1A7DA5
:10478800047A047904120825022EDF74F4121973CE
:1047980074F612191CEAFEEBFF54807003024849B4
:1047A8009003F71249348A088B09A808A909E8492F
:1047B8007003024840E82405F8E93400F98A828B3E
:1047C80083E0246F602824EF600624D2601B806198
:1047D80088828983E0641370588A828B83A3A3122A
:1047E80033C2704D124C7F804812087F8043A3E08B
:1047F800640E703D8A828B83A3A3A3E064057004D2
:10480800A3E06414702B8882898312493AF99003D3
:10481800F8E06405701B747F6960169004501243B9
:1048280010600E9004501234D612493F60031219DA
:1048380071AA08AB0912071DEEFAEF6480FB024962
:104848001EEF544060127C1A7D047A047904120821
:104858001FEEFAEF644080E5EEA2E0506A900C3853
:10486800E0605C900444123AD6900445E0C0E074DD
:1048780001121967D0E0F07508067509007808126A
:104888001B867C467D047404121967AA82AB8312C6
:104898005ED212193290044CE0C0E0740812196715
:1048A800D0E0F090044DE0C0E07409121967D0E040
:1048B800123FD9AA82AB839003F7E0F9120B31EECD
:1048C8006401FAEF0248455402602A9003F8E06454
:1048D80005701D900C5B124375120D6590044E1205
:1048E80033C6600C12495A121B82124696121932AC
:1048F800EE640280CDEE540460187A047B009003C5
:10490800F7E01249236003124C7F12494BEE64040E
:1049180080B07A007B00740A023105F912084FEA68
:10492800F8EBF9ECFAEDFBE8494A4B22E0F91207FB
:1049380035221234DCE02212437F8A828B83E5829F
:10494800458322900C5B12437F9003F7E0F9120A2B
:10495800BF2290044EE0F508A3E0F509E4F50AF556
:104968000B78082274F0121973EAFEEBFF8E828F1F
:1049780083A3A3E0F8EE2403F50EEF3400F50FEE61
:10498800240A12561E858208858309E8602724FEBA
:104998007003024A2A147003024A5C147003024A24
:1049A8005C147003024A96147003024BA11470033E
:1049B800024BE3806AE070417CFA7D037A10790249
:1049C80012081F7C0A7D047A10790312081F7508E3
:1049D800067509007808121B86AC0EAD0F7A1E7B8F
:1049E80004125ED21219329003F87401F07C3C7DF7
:1049F8000C900C3BE0124671E960069003F87406CF
:104A0800F09004501233C6601612326D125637FAFF
:104A1800E9FBEA4B60099003F8124C8C12197102F9
:104A28003AF0E07024850E82850F83E060187C25BB
:104A38007D04900424E0FB7A00124674E98508821C
:104A4800850983F0800312467D850882850983E005
:104A580070A980CBE070A474036870079003F874A1
:104A680002809D900C391233C6900C386016E060B5
:104A780015900C3912495D121B827A011246981260
:104A880019328002E4F09003F87403024A08E060E7
:104A980003024A037508067509007808121B86EE9A
:104AA8002404FCEF3400FD7A527B04125ED2121902
:104AB80032850C82850D8312368A900C5B123CACD1
:104AC8009003F87405F090044E1233C6600C124936
:104AD8005A121B82124696121932EE240CF8EF3441
:104AE80000F98882898312437590045B124CCCEEDE
:104AF800240EFAEF3400FB8A828B8312564190040D
:104B08005D124CD8EE2410FCEF3400FD8C828D83AE
:104B1800124DA190045F124DAF900458E0640170EB
:104B28004C900C5D124DA189838882C3E09508A33F
:104B3800E09509402A88828983124CA440218A8200
:104B48008B8312368A900459E0687003A3E0697079
:104B58000E8C828D83124C937003A3E069600E90D3
:104B68000C61121B9D7900124CB41219327508049D
:104B78007808121B8A850C82850D83125641EE2413
:104B880004FAEF3400FB850E82850F83E0F91208E2
:104B9800917401121932024A091208AF7C067D008D
:104BA80079007A527B0412070B90045BE4F0A3F0BF
:104BB80090045DF0A3F090045F1233CCA3A3A3E0AC
:104BC80064089003F87004740480027403F01246B9
:104BD8007D900C5B74FFF0A3024A08E0703AEE2463
:104BE80006F508EF124C75C082C083900C5D123632
:104BF8008AD083D082C3E098A3E099401B850882BD
:104C0800850983124CA44010850C82850D83124CB3
:104C1800937003A3E0696024900461E014600614B3
:104C28006014024A27900C61121B9D7901124CB442
:104C3800121932024A2712086D024A27124C7F8540
:104C4800088285098312368A90045BE8F0A3E9128A
:104C5800566612368A90045D123CAC850C82850D2E
:104C68008312368A90045F123CAC024A273400F55E
:104C780009850882F583227A047B009003F7E0F91E
:104C880012084922E0F98A828B8322124C9E900CEA
:104C980061E06822A3A3E0F8A3E0F922124C9E7514
:104CA800830C75825FC3E098A3E09922900459129F
:104CB8005645900C5F12437F1208857402228510B6
:104CC80082851183EAF0A3EBF022EAF0A3EBF0A3CC
:104CD800ECF0A3EDF02274F612197374F812191C93
:104CE800E9FE7412121967124DA19003F8E06405E9
:104CF80060057914024D97EE900461F012465D94B8
:104D08007AE9940C4003024D95C3EC94F4ED9401B8
:104D1800507BE50824F6F8E5091246629476E99492
:104D28000C506A900C5D1239F2123CAC900C5F1278
:104D38004CCC900C5F12368A7402121967123CAC84
:104D4800900459124CD890045912368A74041219D6
:104D580067123CAC900C61124DAF900C6112368A10
:104D68007406121967123CAC9003F71239F5AC823D
:104D7800AD83900C5B124375120F4B90908E121BF3
:104D8800997A0412469812193279008002791874B7
:104D980008022FCFF988828983E0F508A3E0F50996
:104DA80022851082851183E508F0A3E509F02274B5
:104DB800F4121973E9FE7F008A088B097808121B20
:104DC800CA00040D544FEA4D064E1B4E304E454E58
:104DD8005A4E764E8F4EA14ECF4EDE4EFA4E164F9D
:104DE800344F74016E70128C828D83E0C39403502B
:104DF80008E0900C63F0024F6A7F18024F6A740251
:104E08006E70F68C828D8312368A900C64E8F0A35B
:104E1800E980E274016E70E18C828D83E0C39402B4
:104E280050D7E090046480CD74016E70CC8C828D74
:104E380083E0C3940550C2E090046580B874016EA5
:104E480070B78C828D83E0C3940250ADE090046605
:104E580080A374106E70A27508108F097808121B51
:104E6800867A677B04125ED2121932024F6A740185
:104E78006E70868C828D83E0C394024003024E01DB
:104E8800E0900477024DFD74016E6003024E018CC0
:104E9800828D83E0900C67808D74046E6003024EEF
:104EA8000190907678081217EC8D838C827808121E
:104EB80016404003024E018C828D8312180A90041A
:104EC80079121816024F6AEE6003024E011208F1B9
:104ED8001208E5024F6A74016E6003024E018C826B
:104EE8008D83E0C394024003024E01E090047802EF
:104EF8004DFD74016E6003024E018C828D83E0C308
:104F0800940A4003024E01E0900C66024DFD7401C4
:104F18006E6003024E018C828D83E024F9C3940AEB
:104F28004003024E01E0900C68024DFD74016E6072
:104F380003024E0190050BE0F88C828D83E090050A
:104F48000BF0E8701DE0640170188084124F6F50F8
:104F58000F74026E700A8C828D83124F77FF800265
:104F68000F0FEFF9023108C3EA9423EB94002212E1
:104F78005645120A3BE92274F112197374CC1219BE
:104F88001C8C0C8D0D7443121967E0F509742012FE
:104F98001967AC82AD8375838F7582F07406121819
:104FA8002F7420121967AC82AD83120897E9FEC3EB
:104FB800940A500474018001E4900462F0A2E04075
:104FC800030250D075F006EEA4FF7426121967ACE0
:104FD80082AD837A0E742012510C7432121967E074
:104FE800F508740465096008900C63E06402700DAC
:104FF800AD09AC08EEF9AA0CAB0D12091B7C147DA7
:10500800007900740C121967AA82AB8312070B741B
:105018000C121967AC82AD837A10742412510CE912
:1050280070357C1079FF740C1219671258047027B8
:10503800741C121967AC82AD837A04742512510C62
:10504800740C121967AC82AD83E508A2E0E433F969
:10505800AA0CAB0D120AC5851082851183AC82ADEE
:10506800837A0C74702E1256ED704B851082851160
:1050780083AA82AB831208C77E00EE75F003A4F8FA
:10508800A9F0851082851183E58228F8E5831258F6
:105098004012401E4D601888828983A3A3125112C2
:1050A800121B86AA0CAB0D120D1174021219320EC6
:1050B800EEC3940440C4E508A2E1500C900463E0F8
:1050C800F9AA0CAB0D120D1774046509702A900C1F
:1050D80063E064027022900477E060047A01800241
:1050E8007A00900464E06004780480027800E84A5A
:1050F800F9AA0CAB0D120B7F790074341219327FA8
:1051080007021A452FF912082522E0F50A750B0047
:10511800780A2274F11219738A0C8B0DECFEEDFFDC
:1051280075080AE9600B146008146025146074801F
:105138007D1259975078EE4F6074750A06750B000A
:10514800780A121B86AC0CAD0D125ECE1219328095
:105158005D750900750A10750B00780A121B86AC7C
:105168000CAD0DE50975F00EA4F8A9F0748528FAC0
:10517800740439FB1207057402121932E9601985A3
:105188000908E508C3940A5025EE4F6021EEFAEFAE
:10519800FBA9081208D380160509E509C3940A502B
:1051A8000D80B11208DFE9F508C3940A40DBA908AD
:1051B80002510774F4121973E9FF7E1574FF6A70BF
:1051C8000374FF6B7028750800EFFC7A027B00A956
:1051D800081208B5E960027E000508E508C3940ACC
:1051E80040E7EF60447A097B0912101D803B120FDB
:1051F800FF8A088B09EA4509602E7C007D00EA24B5
:1052080005FAEB3400FB8508828509831252A55004
:105218000BEFFC7A027B001208B57E00EF600AAA49
:1052280008AB0912090980011EEEF902310874F26F
:105238001219738C088D09740E1219671252B37EF5
:105248001574FF6A700374FF6B701D7F00AC0AADA4
:105258000BAA08AB09EFF91208BBE960027E000F40
:10526800EFC3940A503280E5120FFF8A828B83E5E0
:1052780082458360227C007D00E5822405FAE5836F
:105288003400FB1252A55010AC0AAD0BAA08AB09AA
:105298001208BB7E0080011EEEF90240BEA3A3A344
:1052A800A3E0F9120897E9C3940A22E0F50AA3E0FB
:1052B800F50B22C082C08390047D124CCC9004630D
:1052C800E0FC7D007A227B00120A3B900463E0F93F
:1052D800120C93022BF774F012197374EC12191C48
:1052E800EAFEEBFFEE2409F508EF3400F509EE2499
:1052F8000312561EA3E024FA700302561024FD7010
:105308000302552F1470030253A414601024FD7077
:105318000302550E14700302556802561990047D55
:105328001233C6604912326DE0F50EA3E0F50FE5C1
:105338000E450F6039EE240CF582EF125631F50A4E
:10534800780A121B8AEE240BF582EF125631F98582
:1053580008828509831256410A0A0AAB0D850E8216
:10536800850F8312197174011219320256198508B2
:1053780082850983121B9D90047912180A120AD794
:105388007402121932E970030256197901850882EC
:10539800850983124375120AD10256198E828F83AA
:1053A800A3E060030254E48E828F83A3A3A3A3A384
:1053B800E0A2E040030254E47C0E7D0079008510F1
:1053C80082851183AA82AB8312070BEE2408F50E9F
:1053D800EF3400F50F850E82F5831233C660197518
:1053E80008067509007808121B86850E82850F83CA
:1053F800E02410FCA3E080191256524B70030256A9
:10540800197508067509007808121B86EA2405FC38
:10541800EB3400FD7402121967AA82AB83125ED2C4
:105428001219328E828F83A3A3A3A3A3E0A2E25012
:1054380004D2F08002C2F0A2F0E433F8740C12191E
:1054480067E0481256661233C4601D8E828F83A3AC
:10545800A3A3A3A3A3A3A3A3A3E02410F8A3E034C6
:1054680000F988828983800390903A78081217ECB3
:105478008E828F83A3A3A3A3A3A31233C26006E8DB
:10548800FAE9FB80047A007B00850E82850F83127F
:1054980033C66006880E890F8006750E00750F00EA
:1054A8007808121B828A088B097808121B86780EE6
:1054B800121B86EE240CF582EF3400F583121B9D37
:1054C8008E828F83A312563C740A121967AA82AB84
:1054D800831208CD740A12193212564B90047D12A9
:1054E80033C6700302561912565A70030256198EA3
:1054F800828F83A3E0FC790112436F888285098338
:1055080012197102561912564B90047D1233C67047
:105518000302561912565A70030256198E828F8347
:10552800A3E0FC790280D17C007D00EE2404FAEF30
:105538003400FB850C82850D83E0F9120897E9F8A1
:10554800C3940A4003025619EE240AFCEF3400FD06
:105558007A0475F006E8A42425F912081F025619E2
:10556800900478E0600E900C66E0F9850C82850D59
:105578008302539B900C63E07004790580ED12560A
:10558800522404F50AEB3400F50B8E828F83A3A313
:10559800A3A3A3A3A3E0A2E05034EA4B6073850A57
:1055A80082850B83E0F96026850882850983E054AB
:1055B80010701B740E121967AC82AD83EA2405FAC9
:1055C800EB3400FB120897E970047903809DEE2400
:1055D80005FCEF3400FD850A82850B83E0F9124350
:1055E8006F12091590047D1233C660251234D1A3B9
:1055F800125637FEE9FFEE4F60177C007900124320
:105608006F8E828F83025508120B97E97003120878
:10561800E574140234CBF50CEF3400F50D8E828F4F
:1056280083A322E82402F582E93400F583E02212FC
:105638004C9EE822A3A3A3A3A312564522E0FCA3F1
:10564800E0FD2212437912092722124379120FFF33
:10565800EA2212326D124C9C8909E845092212335C
:10566800D4A3A3A3A3A3A3A3A32274F412197374AA
:10567800F212191CEAFE8C0975F006E9A42420F53B
:1056880008851082851183AC82AD837A0E1256ED9F
:10569800703F7C061257FC7038740C12196712564A
:1056A80037F50BE5096005EE420B8004EEF4520B6A
:1056B800850B82AA82E86A7001E96011740C1219DC
:1056C80067EAF0A3E4125C3EA90812081F7901807A
:1056D800027900740E023105AC82AD837A0E75F042
:1056E80006E9A42420F9120825E92274F212197394
:1056F80074E612191C89098A0C8B0DECFEEDFF74F7
:105708000C1219671256E060030257AD7C0679FF48
:10571800740C12196712580460030257AD7470258F
:1057280009F508851082851183AC82AD837A0C1245
:1057380056ED60030257F2851082851183AA82AB69
:10574800831208C7E50C450D70217C0C79001257AF
:10575800FE60030257F27C0C7D007900851082857B
:105768001183AA82AB8312070B8061851082851191
:1057780083AC82AD83AA0CAB0D1208C18A0A8B0BCD
:10578800A80AA90BE849702CEE4F6019851082858C
:105798001183AC82AD837A007B001208C1EAF8EB72
:1057A800F9EA4B70047900804388828983E50CF01C
:1057B800A3E50DF012562BFAEE6A7001EF602BEE9E
:1057C800F04F700888828983E4F0A3F08510828501
:1057D8001183AA82AB831208C7851082851183AC16
:1057E80082AD837A0CA90812081F7901741A12195C
:1057F800320240BE79FF851082851183AA82AB836D
:10580800120771E92274F71219737F00EF75F0031C
:10581800A4F8A9F0EC28F8ED125840E06A7003A348
:10582800E06B7006E8FAE9FB800B0FEFC3940440C5
:10583800DB7A007B00022EDF39F9888289832274A3
:10584800F71219737E00EE75F003A4F8A9F0EA28A0
:10585800F8EB125840E0F4FCA3E0F4FD8882898359
:10586800124CD812562BF4F00EEEC3940440D70213
:105878002EDF74F012197374F412191CEAFEEBFF90
:105888008C0A8D0B741C1219671259A8741E1219F0
:1058980067E0F50EA3E0F50FEE4F7005790A02599F
:1058A8008112599740147509007C0679FFE50912A1
:1058B8005B007003025986850908E508C3940A400D
:1058C8000302597F75F006E508A4F509EEFCEFFD23
:1058D8007A0E74201259A1E50A450B600BAC0AAD8B
:1058E8000B7A1B74211259A1E50C450D600BAC0C09
:1058F800AD0D7A1B74221259A1E50E450F600BAC51
:105908000EAD0F7A1074231259A174201219671260
:1059180033C6601F74201219671256417A10742416
:105928001259A17422121967AC82AD837A047425C6
:105938001259A17C0C7D0079FF125F437A0C7470B8
:105948002508F912081F750A0E750B00780A121B34
:1059580086EEFCEFFDE50875F00EA4F8A9F0747F5B
:1059680028FA740439125ED112193290050BE060DE
:105978000312092112090FA908740C0234CB050976
:10598800E509C3940A50030258B175080A80E81261
:1059980008D9E9F508C3940A222509F912081F2233
:1059A800E0F50CA3E0F50D2274F412197374F212E9
:1059B800191CEAFEEBFFE9C3940A5004EE4F700489
:1059C800790280298510828511831256E0F50870C6
:1059D8001A750A10750B00780A121B8674021219C0
:1059E80067AC82AD83125ECE121932A9080256DB6B
:1059F80074F4121973EAFEEBFF750800750A067550
:105A08000B00780A121B86EEFCEFFDE50875F00E18
:105A1800A4F8A9F0747F28FA740439FB12070574F6
:105A280002121932E96004A908800B0508E508C3C9
:105A3800940A40C8790A02310874F712197374F08D
:105A480012191CEAFEEBFF75080085108285118388
:105A5800AC82AD837A1075F006E508A42423F91208
:105A680008257C101257FC7018EEFCEFFD8510829B
:105A7800851183AA82AB83120AA7E97004A908805A
:105A88000B0508E508C3940A40C0790A7410023867
:105A98005C74F71219737C8C7D0079007A7F7B0423
:105AA80012070B7E00EE75F00EA4F8A9F0747F289B
:105AB800FC740439FD7A0E75F006EEA42420F91260
:105AC80008250EEEC3940A40DC90050BE060031233
:105AD800092112090F022EDF74F71219737E007F55
:105AE800007C0679FFEF125B0070010E0FEFC39484
:105AF8000A40EEEEF9022EDF75F00EA4FAABF07450
:105B08007F2AFA74043BFB120771E92274F7121911
:105B1800737E00EEF91208F70EEEC3940A5003E9FB
