:10F000005542200135D0085A824562023140000342
:10F010003F4008000F9308249242620220012F8390
:10F020009F4F80FB0002F8233F405A000F930724B4
:10F030009242620220011F83CF430802F9232183F9
:10F04000B0122EF4B01210F63E4064004F43B012DE
:10F050002CF53E4096005F43B0122CF5F2F0F8FF1D
:10F060002A00F2F0F8FF2C00F2F0F8FF2B00F2D0AB
:10F0700007002D00F2F0DFFF2900B0126CF332D24E
:10F08000F2D020002900F2D010002900F2F0EFFFAA
:10F090002A005F43B01286F55F420E024F93FC27B1
:10F0A000B01266F6B0127AF7814300007F4050003C
:10F0B000B0128EF42F410F93FD270F43215332D00E
:10F0C000F000FD3F30404CFB5F4218025F9326206A
:10F0D0005F4228001FF31E245F4224024F930D203D
:10F0E000B250640022021F4222021F9228021B20FB
:10F0F000D2432402B01200FB3041B2506400260219
:10F100001F4226021F922A020E20B01200FB8243E9
:10F11000260230414F43B012B2F53041C2431802CB
:10F120004F43B012B2F530415F420E024F930F20B1
:10F130001F420C021F53824F0C022F934620D243D2
:10F140000E02F2F0DFFF290082430C023E3C5F42D8
:10F1500000025F931E205F420A026F930A20B012E2
:10F1600066F6B0127AF7F2F0DFFF2900F2D007005E
:10F170002D00D2530A025F420A027F908CFF0920C1
:10F180005F43B012B2F5D24308024F43B012E8F722
:10F190001C3C1F4202020F9318205F4229003FF0DF
:10F1A00020000324F2E020002900D25310021F4265
:10F1B00002020F930A205F4210027F901E0005207A
:10F1C000F2E020002900C24310024F4330413F408B
:10F1D000E803B0121CF45F4208025F932920C24387
:10F1E0000802B0126CF6F2F0EFFF2900F2D0100026
:10F1F0002A00F2D020002900B0124CF7D2430002BE
:10F20000C2430A02F2F0F8FF2D005F43B01256F538
:10F210004F9303205F43B01286F53F40B80BB01206
:10F220001CF4F2D010002900F2F0EFFF2A00304168
:10F230005F422B001FF33B245F4228001FF32B2467
:10F240005F422C001FF327205F4228002FF3042485
:10F250001F4202020F9328204F43B01256F54F93DE
:10F260000B2082432602C243240282432202D2435D
:10F270001802B01286F5083C4F43B01256F54F9372
:10F2800003244F43B012B2F5D2D32C00D24316025E
:10F29000B01200FB093C5F422C001FF30524F2F082
:10F2A000FEFF2C00C2431602F2F0FEFF2B005F426D
:10F2B0002B002FF222245F4228002FF210245F42FD
:10F2C0002C002FF20C20B01256F54F9303244F431D
:10F2D000B012B2F5E2D22C00D2431402093C5F42D4
:10F2E0002C002FF20724F2F0FBFF2C00C243140283
:10F2F000B01218FBF2F0FBFF2B005F422B002FF344
:10F300002A245F4228002FF318245F422C002FF399
:10F310001420B01256F54F9303244F43B012B2F5A8
:10F320005F4228001FF304241F4202020F931020A3
:10F33000E2D32C00D2431202093C5F422C002FF38F
:10F340000724F2F0FDFF2C00C2431202B01230FB82
:10F35000F2F0FDFF2B00F24003000A0230415E4252
:10F3600008025F435E9301244F4330413F4028022F
:10F37000BF40E8030000BF40F40102003041F2D07A
:10F3800020002900824302025F43B01256F54F93DA
:10F3900003205F43B01286F5C2430802C243000255
:10F3A000C2430A023041F2F0DFFF29009243020219
:10F3B000D2430002C2430A025F43B01256F54F9394
:10F3C00003205F43B01286F53041DF421602000091
:10F3D00030413E402802BF4E0000AF4E0200304197
:10F3E0003E402802AE4F00009E4F02000200304116
:10F3F000DF42140200003041DF42120200003041BF
:10F400000F120E120D120C12B012CEF1B1C0A000EC
:10F4100008003C413D413E413F4100130E43043C46
:10F42000B2400A001A021E530E9FFA3B3041B2400E
:10F43000805A2001C2432100C2432600C24341003A
:10F44000C2432200C2432400C2432300F2403000E2
:10F450002A00C2432900C2432C00C2432B00C243EE
:10F4600058005F42FF107F930824C2435600D242E7
:10F47000FF105700D242FE105600F2D080FF570016
:10F48000F24024005300B240805A200130417F9066
:10F4900010000C247F90500009247F9090FF0624D8
:10F4A0007F90D0FF03247F90F0FF02204F4F02DFB8
:10F4B0003041B240100062010E4F0E5E0F5E0F5FD2
:10F4C0000F5F824F7201B2400001600130411E4265
:10F4D00060013EF010005F430E9301204F43304126
:10F4E00082437001B2F0FEFF6201B2D010006201EF
:10F4F000B2D010006001304182437001B2F0EFFFE2
:10F500006201B2F0FEFF6201B2F0EFFF6001304134
:10F51000B240100082010E4F0E5E0F5E0F5F0F5F54
:10F52000824F9201B2400001800130414D4F0F4E99
:10F530004D930320B012B2F430415D930220B0121B
:10F5400010F530411E4280013EF010005F430E93E3
:10F5500001204F4330414F930320B012CEF430418D
:10F560005F930320B01244F530414F433041824352
:10F570009001B2F0FEFF8201B2D010008201B2D041
:10F580001000800130414F930320B012E0F430416D
:10F590005F930220B0126EF5304182439001B2F0C9
:10F5A000EFFF8201B2F0FEFF8201B2F0EFFF8001B7
:10F5B00030414F930320B012F8F430415F930220A2
:10F5C000B0129AF530410F120E120D120C12B01239
:10F5D000C8F03C413D413E413F4100130F120E1225
:10F5E0000D120C12B01228F15F930320B1D0F0007D
:10F5F00008003C413D413E413F41001321830F4102
:10F60000B01256FA4F930224E24167002153304171
:10F61000D2D36100F2D006002600F2D006004100ED
:10F62000F2D010002200F2D010002100F2F0DFFF33
:10F630002200F2D020002400F2F0DFFF2300F2D0FD
:10F6400020002500F24081FF6100F2400C006400C0
:10F65000F2426200F2F0FEFF6100F2F0FEFF0300F2
:10F66000D2D301003041D2431C023041C2431C02BC
:10F6700030410F120E120D120C125F426600B012D2
:10F6800004F74F930224B012A0F9D2931C02062073
:10F69000F2F0EFFF2100F2D010002100B1C0A00075
:10F6A00008003C413D413E413F4100130F120E1204
:10F6B0000D120C1221835F4223003FF02000122420
:10F6C0000F41B01256FA4F930324E2416700073C02
:10F6D000B0125EF34F930324B1D0F0000A00F2F0B1
:10F6E000DFFF230021533C413D413E413F41001398
:10F6F0000F4232C27FF230414F93022432D2304166
:10F7000032C230411D420402C29306020C244F93C0
:10F710000A24CD4F0000C24F5802D2432C02C243EC
:10F7200006024F4330415C422C024E4C0E5DCE4FE0
:10F7300000004F4C5F53C24F2C025F9258020428C6
:10F74000D24306025F4330414F433041C2432D0252
:10F75000C2436002C2435802C2432C02C243200289
:10F76000C2431E02D243060282435A0282435C0213
:10F7700082433A0282433C023041D243200230416C
:10F78000B24031022E025F4232025F53C24F2D025D
:10F79000C2436002B012FCF53041D29320020D202A
:10F7A000824E5E02C2433102F24009003302E2425D
:10F7B0003202C24F3402B01280F730410E4F4F4335
:10F7C000B0129AF73041E29320020D20D24320027A
:10F7D000C2433102F24007003302E2423202C24326
:10F7E0003402B01280F73041E29320020B24C2436E
:10F7F0003102F2400C003302E2423202C24F3402C4
:10F80000B01280F73041B2403F022E025F42400208
:10F810005F53C24F2D02C2436002B012FCF530416B
:10F820000B120A124A4FB012F0F6C2931E020820C1
:10F8300082933A02052082933C0202205B43143CEF
:10F840004B431E434D4A7DF00F004D9303240E5E43
:10F850007D53FB3F0C4E8E108E118E108E110D4E6F
:10F8600082DC3A0282DD3C02B012F8F64F4B3A419C
:10F870003B413041E29320020E20C2433F02C24F7F
:10F8800041026E52C24E40024F43B01220F84F93D5
:10F890000224B01206F83041F290FBFF420204202D
:10F8A00082435A0282435C024E436F42B01274F8A4
:10F8B00030415F4242027F90FAFF12247F90FBFFAB
:10F8C00004347F90F9FF3020293C7F90FCFF042412
:10F8D0007F90FDFF2920153C3E4044020F43153C1C
:10F8E0003E4044020F43DE4F6CFB00001F531E538B
:10F8F0003F901300F823D24262FB57027E4014006F
:10F90000143CB2400C0044020D3CDE4F64FB00008E
:10F910001F531E533F92F9237E42073CE2424402AA
:10F92000F24245026E43013C4E436F43B01274F8FD
:10F9300030415F4242026F9311247F9003000334F1
:10F940005F931D20063C7F9003000E246F921720CA
:10F95000103C3F404402B012CAF30F3C3F40440207
:10F96000B012D2F36E420C3C3F404402B012F0F3AE
:10F97000043C3F404402B012F8F35E43013C4E4366
:10F980006F43B01274F83041E293420204203F40CA
:10F990004402B012E0F34E436F42B01274F83041AB
:10F9A000C29320022B245F4241027F537F900A00C2
:10F9B000252C4F4F0F5F104F4EFBE2432002B01239
:10F9C0007EF33041D2432002B012A6F330411F42F1
:10F9D0005E020F9313248F123041D29342020338F8
:10F9E000B01232F93041B012B2F83041D293420233
:10F9F0000338B01288F93041B01298F830415F9363
:10FA000007203F403602B012CAF35E435F43163C04
:10FA10006F9308203F403602B012F0F35E437F4000
:10FA200003000C3C7F90030007203F403602B012D9
:10FA3000F8F35E436F42023C4E434F43C2433102F0
:10FA4000F240050033026E52C24E3202C24F3402FF
:10FA5000B01280F730410B120A12091208120B4F34
:10FA6000B012F0F64A4F5E43C2932D0201204E437E
:10FA7000C24E1E024E932E201C423A021D423C02F0
:10FA80000C9302200D9332241E430F434B43084E28
:10FA9000094F08FC09FD0893022009931124084C22
:10FAA000094D08CE09CF82483A0282493C024B9365
:10FAB0000320B01206F8093C4F4BB012FEF9053C8A
:10FAC0005B530E5E0F6F6B92E2234F4AB012F8F653
:10FAD0004F43113C5D4260024E4D1E522E02EB4ED2
:10FAE00000005D53C24D6002F2532D024F4AB01226
:10FAF000F8F65F421E02384139413A413B413041FC
:10FB0000C293200208245F43B01220F84F930324CD
:10FB10005F43B012FEF93041C293200208246F43C4
:10FB2000B01220F84F9303246F43B012FEF9304116
:10FB3000C29320020A247F400300B01220F84F93A2
:0EFB400004247F400300B012FEF93041001390
:10FB4E00DAF9FCF9ECF9FCF9FCF9BAF9C4F9FCF9AB
:10FB5E00FCF9CEF900012F2FCBAC40010000306C28
:10FB6E003D4422A9F13D02316438B5795F960C000F
:02FB7E00220063
:08FB8000010001004002010038
:02FB880000007B
:10FFE000C4F0C4F0ACF600F4C4F0C4F0C4F072F68F
:10FFF000C4F0C6F5C4F0C4F0C4F0DCF5C4F000F001
:040000030000F00009
:00000001FF
